:020000040000FA
:060000000A128A110C280F
:10000800FE00030EF0000A08F1000A128A11922F6E
:100018000A128A110F280A128A11D0220A128A118A
:10002800E8000A128A11D1220A128A11E9000A127A
:100038008A11D2220A128A11EA000A128A11D322DC
:100048000A128A11EB0083132030840050300A1200
:100058008A11C8220A128A1183010A128A11C12B35
:1000680083120313DF005530D7005708DA00072939
:10007800253060060319412842284E286008D70019
:100088005F0884005708831380000130D7005708A1
:10009800DF070729DB010130D407FF30540784004C
:1000A8000A128A110A230A128A11E000D700D8011D
:1000B8005808003A0319612807295708003A031914
:1000C8001929643A03196C280D3A03196C28072971
:1000D8005A08840083130008DD00840A0008DE0043
:1000E8000230D7005708DA07DE1F7B287C288528CE
:1000F8000330D7005708DB04DD09DE09DD0A0319E0
:10010800DE0AE001E00A6008D7005707013E8400D4
:100118000A128A110A230A128A11D8000A128A11AD
:100128000A230A128A11D90059085E02031D9E2863
:1001380058085D020318A128A228A328AD28013079
:10014800D7005708E00705306006031DAC28AD2826
:1001580087285B0803390319B228B328BE282D3035
:10016800D7005F0884005708831380000130D70048
:100178005708DF076008D7005708DC00FE280A3058
:10018800D0000030D1005C08D7005707013E84003A
:100198000A128A110A230A128A11F2000A128A1113
:1001A8000A230A128A11F3005E08F5005D08F400BC
:1001B8000A128A1169260A128A1173088312031314
:1001C800D3007208D2000A128A11EA260A128A118A
:1001D800831203135008303ED8005808E000600826
:1001E800D7005F0884005708831380000130D700C8
:1001F8005708DF07FF30D7005708DC075C0A031DE4
:1002080006290729C3280130D407FF305407840082
:100218000A128A110A230A128A11D7005708E00025
:100228006008031D182919293C285F0884008313D6
:10023800800108000A128A11DA270A128A11F601C7
:10024800F60A01300A128A1132250A128A116D3013
:1002580083120313D0008030D1000A128A11DE25E0
:100268000A128A110B3083120313D9002630D800E2
:100278005D30D700D70B3E29D80B3E29D90B3E2934
:10028800013083120313DA000030DB0083120313FA
:100298005A08D7005708F60002300A128A11322588
:1002A8000A128A11FF300A128A11D3240A128A11FB
:1002B800023083120313D9000430D800B930D700B4
:1002C800D70B6429D80B6429D90B64296B29013011
:1002D80083120313DA070318DB0A0030DB075B0815
:1002E800803AFF0080307F02031D7C2911305A02BA
:1002F800031C7F2980294A290A128A11DA270A123F
:100308008A11F601F60A01300A128A1132250A12F8
:100318008A116D3083120313D0008030D1000A1285
:100328008A11DE250A128A11F601F60A02300A122B
:100338008A1132250A128A11AB3083120313D000B6
:100348008030D1000A128A11DE250A128A1183121E
:1003580003138814023083120313D9000430D80021
:10036800B930D700D70BB629D80BB629D90BB6297F
:10037800BD29831203138810023083120313D90096
:100388000430D800B930D700D70BC829D80BC829F2
:10039800D90BC829CF29831203138814023083127A
:1003A8000313D9000430D800B930D700D70BDA29A5
:1003B800D80BDA29D90BDA29E1298312031388101B
:1003C800023083120313D9000430D800B930D700A3
:1003D800D70BEC29D80BEC29D90BEC29F3290A12F5
:1003E8008A11DA270A128A11080000300A128A11C3
:1003F80026270A128A11730883120313BB00720896
:10040800BA007A30E1006108D4003B08D6003A0807
:10041800D5003C300A128A1134200A128A11F601DA
:10042800F60A01300A128A1132250A128A113C3062
:1004380083120313D0000030D1000A128A11DE257E
:100448000A128A11831203133B08803AFF00813095
:100458007F02031D312A2D303A02031C342A352A23
:100468009C2AF601F60A02300A128A1132250A126B
:100478008A11913083120313D0008030D1000A1200
:100488008A11DE250A128A11013083120313B8007B
:100498000030B90008118815081668036904031D9F
:1004A800562A572A5F2AE801E9010130B6000030D0
:1004B800B700B401B5013008E1003108E2003208A4
:1004C800E3003308E4002408E1022508031C250F93
:1004D8006E2A6F2AE2022608031C260F742A752A40
:1004E800E3022708031C270F7A2A7B2AE402640800
:1004F800031D8D2A6308031D8D2A27306202031D00
:10050800892A10306102031D892A031C8C2A8D2A2E
:10051800BE2A831203133308A7003208A600310845
:10052800A5003008A4000130B6000030B700BE2A8C
:10053800F601F60A02300A128A1132250A128A11C5
:10054800863083120313D0008030D1000A128A113A
:10055800DE250A128A1183120313B801B901B60104
:10056800B701B401B5010815881108120130E80077
:100578000030E90008004130831203139F00C030A7
:10058800831603139F00080064008001840A040690
:10059800031900340406C92A013400342C34013408
:10060000FF1B0A2B83137F1883170008840A031922
:10061000FF0A080003308A000408840A82070034B5
:10062000013400340A34003464340034E8340334D0
:1006300010342734E83403340034003410342734C1
:1006400000340034F434013400340034F434013420
:10065000003400340A340D34413454342B344334E0
:100660004D34473453343D3422342B34393434340C
:100670003734373431343634333432343334363437
:10068000373422340A340D3400340A340D344734FC
:100690006134733420344C34653461346B34203429
:1006A0004434653474346534633474346534643488
:1006B0000A340D34203400344C3450344734203460
:1006C00047346134733420344434653474346534CD
:1006D000633474346F34723400340A340D3441346A
:1006E00054342B3443344D34473446343D34313460
:1006F0000A340D342034003449346E34693474348F
:10070000693461346C3469347A3469346E346734F2
:1007100000344D3451342034323420343D342034CC
:10072000253464342034203400344E346F34723431
:100730006D3461346C34203420342034203400345F
:100740005734613472346E3469346E346734203413
:100750002034203400345634653472342D3430342F
:100760002E34313400340A340D34413454340A34D4
:100770000D34003444346F346E3465342034213405
:1007800000340A128A11E7270A128A110A128A1102
:10079000C8270A128A110A128A11BF220A128A1164
:1007A0008316031386018312031386018316031332
:1007B000880183120313880108108810081188111A
:1007C00008120A128A118A250A128A110A128A113B
:1007D000DA270A128A11F601F60A01300A128A1182
:1007E00032250A128A114D3083120313D000803053
:1007F000D1000A128A11DE250A128A11F601F60AC0
:1008000002300A128A1132250A128A119C30831290
:100810000313D0008030D1000A128A11DE250A129B
:100820008A118312031308148814081588151530CB
:1008300083120313E7004B30E600BD30E500E50B03
:100840001F2CE60B1F2CE70B1F2C262C83120313E7
:100850000810881008118811153083120313E7005F
:100860004B30E600BD30E500E50B342CE60B342CB4
:10087000E70B342C3B2C0A128A111E210A128A1112
:100880000A128A11AD260A128A110A128A11F92156
:100890000A128A110A128A1124260A128A110A12CD
:1008A0008A1158240A128A11402C0A128A110C2823
:1008B0008312031336033704031D5F2C602CD22CE4
:1008C0003308031D722C3208031D722C03303102D1
:1008D000031D6E2CE8303002031D6E2C031C712C9E
:1008E000722CD22C013083120313B4070318B50AFB
:1008F0000030B50734033504031D7F2C802C8C2C6D
:1009000033300A128A1173270A128A11A4300A128C
:100910008A1173270A128A110230831203133406D4
:100920003504031D942C952C9B2C5E300A128A11E1
:1009300073270A128A110330831203133406350415
:10094000031DA32CA42CAA2C1B300A128A11732776
:100950000A128A1104308312031334063504031D6E
:10096000B22CB32CC52C36300A128A1173270A1206
:100970008A111A300A128A11F3270A128A113330A7
:100980000A128A1173270A128A110530831203137F
:1009900034063504031DCD2CCE2CD22CB601B70164
:1009A000B401B5010800F60076080F39F3007308AA
:1009B000F4007608F039F3007308F500831203138E
:1009C00086167508F30004300310F30CFF3E031D78
:1009D000E42C73080A128A1151270A128A11831211
:1009E000031306163330F7008230F8000000FF30A2
:1009F000F7070318F80AFF30F8077808803AFF0075
:100A000080307F02031D062D01307702031C092D63
:100A10000A2DF62C83120313061274080A128A1187
:100A200051270A128A118312031306163330F90074
:100A30008230FA000000FF30F9070318FA0AFF308D
:100A4000FA077A08803AFF0080307F02031D2A2DC2
:100A500001307902031C2D2D2E2D1A2D8312031324
:100A60000612080083120313D0005003031D392D12
:100A70003A2D5F2D76087F3EF7007708D3005308A4
:100A8000F70004300310F70CFF3E031D422D7708DA
:100A9000F8007808D10053080F39F7007708D20022
:100AA00051080A128A11AE270A128A1183120313FF
:100AB00052080A128A11AE270A128A11892D0230B1
:100AC0005006031D642D652D892D7608BF3EF70065
:100AD0007708D3005308F70004300310F70CFF3EEB
:100AE000031D6D2D7708F8007808D10053080F39E1
:100AF000F7007708D20051080A128A11AE270A12AD
:100B00008A118312031352080A128A11AE270A129D
:100B10008A11080000300A128A1151270A128A111C
:100B200003300A128A11AE270A128A111A30F7000E
:100B3000F830F600F60B9A2DF70B9A2D00000330D3
:100B40000A128A11AE270A128A113A30F7002330AE
:100B5000F600F60BA92DF70BA92D03300A128A1106
:100B6000AE270A128A1102300A128A11AE270A121F
:100B70008A1102300A128A11AE270A128A1108302D
:100B80000A128A11AE270A128A1100300A128A113B
:100B9000AE270A128A110C300A128A11AE270A12E5
:100BA0008A1100300A128A11AE270A128A11063001
:100BB0000A128A11AE270A128A110800831203133F
:100BC000D501D601072E55085007D3005108D20091
:100BD0000318D20AD51FED2DD20383120313520836
:100BE000D4005408FF00530884000A128A1100231D
:100BF0000A128A110A128A11D3240A128A110130A8
:100C000083120313D5070318D60A0030D6075508F8
:100C10005007D3005108D2000318D20AD51F112E55
:100C2000D203831203135208D4005408FF00530860
:100C300084000A128A1100230A128A11003A031D45
:100C4000222E232EE32D0800831203133008F20016
:100C50003108F3003208F4003308F5002808F202E6
:100C60002908031C290F352E362EF3022A08031CEF
:100C70002A0F3B2E3C2EF4022B08031C2B0F412E77
:100C8000422EF5027508031D542E7408031D542EC0
:100C900001307302031D502EF4307202031D502EDA
:100CA000031C532E542E682E831203133308AB00FB
:100CB0003208AA003108A9003008A8003803390416
:100CC000031D632E642E672E02308806682E88105E
:100CD0000800F701F801720873040319702E712ED1
:100CE000A82EF901F90A7F2E01300310F20DF30D41
:100CF000FF3E031D752E0130F6007608F907F31F3D
:100D0000822E832E742E01300310F70DF80DFF3E56
:100D1000031D842E73087502031D902E7208740241
:100D2000031C932E942E9B2E7208F4027308031C4E
:100D3000F503F502771401300310F30CF20CFF3EBB
:100D4000031D9C2E0130F902031DA72EA82E832E11
:100D50007808F3007708F2000800831203133008C4
:100D6000F2003108F3003208F4003308F5002C08D3
:100D7000F2022D08031C2D0FBE2EBF2EF3022E08EB
:100D8000031C2E0FC42EC52EF4022F08031C2F0F98
:100D9000CA2ECB2EF5027508031DDD2E7408031D27
:100DA000DD2E01307302031DD92EF4307202031DB3
:100DB000D92E031CDC2EDD2EE92E831203133308FB
:100DC000AF003208AE003108AD003008AC00013091
:100DD0008806080083120313500851040319F12EEA
:100DE000F22E212FFB01FB0A002F01300310D00D42
:100DF000D10DFF3E031DF62E0130FA007A08FB07E5
:100E0000D11F032F042FF52E51085302031D0A2F63
:100E100050085202031C0D2F0E2F142F5008D2021F
:100E20005108031CD303D30201300310D10CD00CA2
:100E3000FF3E031D152F0130FB02031D202F212F24
:100E4000042F5308D1005208D0000800F6000130EA
:100E5000F4007408831203139F057608F40002302F
:100E60000310F40DFF3E031D302F0310740DF50029
:100E700075089F040B30F5006230F400F40B3E2F30
:100E8000F50B3E2F0000831203131F151F19492F66
:100E90004A2F462F1E08F300831603131E08F20084
:100EA0000800F200721C552F562F5A2F831203137D
:100EB00086155D2F831203138611F21C602F612F9C
:100EC000632F0615642F0611721D672F682F6A2F76
:100ED00086146B2F8610F21D6E2F6F2F712F061444
:100EE000722F06100800F400852F740884000A127F
:100EF0008A110A230A128A110A128A11F3270A1286
:100F00008A110130F3007308F407740884000A1290
:100F10008A110A230A128A11003A031D902F912F79
:100F2000752F08000B1D952F962FA72F0B11013041
:100F300083120313B007003003180130B1070030EB
:100F400003180130B207003003180130B3077108ED
:100F50008A00700E8300FE0E7E0E0900F5008312DB
:100F60000313861275080A128A1151270A128A1170
:100F70008312031306161530F400C630F300F30B8A
:100F8000BF2FF40BBF2F00008312031306120800BB
:100F900083160313071387171813981618121815BA
:100FA0008312031398171813181667308316031348
:100FB0009900080000300A128A11AE270A128A111D
:100FC00001300A128A11AE270A128A110800043071
:100FD00083160313810064308312031381008B177F
:100FE0000B178B160800F200831203130C1EF92F47
:0A0FF000FA2FF42F72089900080090
:02400E00723FFF
:00000001FF
